:100000000C946B000C9493000C9493000C945A1570
:100010000C945A150C945A150C9493000C9493005C
:100020000C9493000C9493000C9493000C94930004
:100030000C9493000C9493000C9493000C949300F4
:100040000C9410150C9493000C94DE140C94B814BA
:100050000C9493000C9493000C9493000C949300D4
:100060000C9493000C9493007C3C3E5E2B3D3F2F00
:100070005B5D3B2C2A225C000000000800020100AE
:100080000003040700000000000000000000000062
:10009000240027002A000000000023002600290079
:1000A00000000000250028002B00040404040404C0
:1000B0000404020202020202030303030303010217
:1000C00004081020408001020408102001020408E6
:1000D0001020D215881E11241FBECFEFD8E0DEBF3E
:1000E000CDBF12E0A0E0B1E0EEE0F6E402C0059082
:1000F0000D92A438B107D9F726E0A4E8B2E001C018
:100100001D92AF3AB207E1F710E0CAE6D0E004C0B2
:100110002197FE010E946221C936D107C9F70E94CA
:100120006B170C94FA220C940000DC01ED91FC9109
:100130000190F081E02D0994AF92BF92CF92DF92AF
:10014000EF92FF920F931F93CF93DF936C017B018C
:100150008B01040F151FEB015E01AE18BF08C0171D
:10016000D10759F06991D601ED91FC910190F08190
:10017000E02DC6010995892B79F7C501DF91CF9153
:100180001F910F91FF90EF90DF90CF90BF90AF90B5
:100190000895FC01538D448D252F30E0842F90E08D
:1001A000821B930B541710F0CF9608950197089572
:1001B000FC01918D828D981761F0A28DAE0FBF2F3B
:1001C000B11D5D968C91928D9F5F9F73928F90E091
:1001D00008958FEF9FEF0895FC01918D828D981700
:1001E00031F0828DE80FF11D858D90E008958FEF3D
:1001F0009FEF0895FC01918D228D892F90E0805C06
:100200009F4F821B91098F739927089587EF94E080
:100210000E94FA0021E0892B09F420E0822F089542
:1002200080E090E0892B29F00E94060181110C9456
:1002300000000895FC01A48DA80FB92FB11DA35A89
:10024000BF4F2C91848D90E001968F739927848FF6
:10025000A689B7892C93A089B1898C918370806419
:100260008C93938D848D981306C00288F389E02DBA
:1002700080818F7D80830895EF92FF920F931F936B
:10028000CF93DF93EC0181E0888F9B8D8C8D981349
:100290001AC0E889F989808185FF15C09FB7F89455
:1002A000EE89FF896083E889F989808183708064A1
:1002B00080839FBF81E090E0DF91CF911F910F91EC
:1002C000FF90EF900895F62E0B8D10E00F5F1F4FFB
:1002D0000F731127E02E8C8D8E110CC00FB607FC0A
:1002E000FACFE889F989808185FFF5CFCE010E9498
:1002F0001A01F1CFEB8DEC0FFD2FF11DE35AFF4FEB
:10030000F0829FB7F8940B8FEA89FB898081806225
:10031000CFCFCF93DF93EC01888D8823B9F0AA89E2
:10032000BB89E889F9898C9185FD03C0808186FDB0
:100330000DC00FB607FCF7CF8C9185FFF2CF8081FF
:1003400085FFEDCFCE010E941A01E9CFDF91CF9159
:100350000895833081F028F4813099F08230A9F03B
:1003600008958730A9F08830C9F08430B1F48091C5
:1003700080008F7D03C0809180008F778093800004
:10038000089584B58F7784BD089584B58F7DFBCFA4
:100390008091B0008F778093B00008958091B00075
:1003A0008F7DF9CFCF93DF93282F30E0F901E85804
:1003B000FF4F8491F901E254FF4FD491F901E655C2
:1003C000FF4FC491CC23A1F081110E94A901EC2F11
:1003D000F0E0EE0FFF1FEA56FF4FA591B491EC91AC
:1003E000ED2381E090E009F480E0DF91CF91089562
:1003F00080E090E0FACF1F93CF93DF93282F30E077
:10040000F901E858FF4F8491F901E254FF4FD4916C
:10041000F901E655FF4FC491CC23A9F0162F8111A5
:100420000E94A901EC2FF0E0EE0FFF1FE056FF4FF6
:10043000A591B4918FB7F894EC91111108C0D095A3
:10044000DE23DC938FBFDF91CF911F910895DE2BC8
:10045000F8CFCF93DF9390E0FC01E254FF4F24915B
:1004600086559F4FFC0184918823D1F090E0880F3E
:10047000991FFC01E457FF4FA591B491FC01E05690
:10048000FF4FC591D49161110EC09FB7F8948C9124
:10049000E22FE0958E238C932881E223E8839FBF8F
:1004A000DF91CF9108958FB7F894EC91E22BEC9304
:1004B0008FBFF6CF806480937C0080917A00806447
:1004C00080937A0080917A0086FDFCCF809178003D
:1004D0009091790008953FB7F8948091D00290915F
:1004E000D102A091D202B091D30226B5A89B05C03B
:1004F0002F3F19F00196A11DB11D3FBFBA2FA92FA3
:10050000982F8827BC01CD01620F711D811D911D9F
:1005100042E0660F771F881F991F4A95D1F708950B
:100520008F929F92AF92BF92CF92DF92EF92FF9203
:100530000E946B024B015C0184E6C82ED12CE12C99
:10054000F12C0E946B02681979098A099B09683E9F
:10055000734081059105A8F321E0C21AD108E10892
:10056000F10888EE880E83E0981EA11CB11CC1140E
:10057000D104E104F10429F7FF90EF90DF90CF90D0
:10058000BF90AF909F908F9008952FB7F89460918F
:10059000CC027091CD028091CE029091CF022FBFFC
:1005A0000895CF93DF93EC018A859B85AC85BD854B
:1005B0008E839F83A887B9870E94C5026A837B8345
:1005C0008C839D8381E089838883DF91CF91089517
:1005D000CF93DF93EC018E819F81A885B9858A83B3
:1005E0009B83AC83BD830E94C5026A877B878C870F
:1005F0009D8781E089838883DF91CF910895209141
:10060000D6023091D7022817390771F49091D4029D
:100610008091D502981741F0E091D402F0E0E557BF
:10062000FD4F808190E008958FEF9FEF089508952A
:10063000EF92FF920F931F93CF93DF93DC015C96B1
:10064000ED90FC905D97E114F10479F481E090E085
:1006500013969C938E93129790E080E0DF91CF9158
:100660001F910F91FF90EF9008955196ED91FC919D
:10067000529750968C915097982F90950FB75E9601
:100680002C915E97122F127021FD6095F8942081B5
:10069000112319F1282B2083E7012197F1F728E096
:1006A000462F50E0308160FF1AC0382B3083E701BD
:1006B0002197F1F7BA0175956795215089F71123B4
:1006C00081F08081892380830FBF5C968D919C91FE
:1006D0000197F1F781E090E0C1CF2923DCCF3923E6
:1006E000E5CF9081892BEFCF2091D6023091D702B0
:1006F0002817390771F48091D5022091D40290E037
:10070000805C9F4F821B910960E470E00E942C2165
:10071000089590E080E008952091D6023091D702AC
:1007200028173907B9F49091D4028091D50298170F
:1007300089F0E091D402F0E0E557FD4F80812091EF
:10074000D40230E02F5F3F4F2F7333272093D40222
:1007500090E008958FEF9FEF089590E080E0089576
:100760008FB7F894809185028FBF089561E0FC01F6
:1007700084810E94FB018091840281111092840285
:1007800008958EBD00000DB407FEFDCF8EB508950F
:100790008FEF0C94C1030F931F93CF93DF93EC0162
:1007A0000E94C5028B010E94C8038F3F69F00E941E
:1007B000C502601B710B6C177D07A8F380E0DF9109
:1007C000CF911F910F91089581E0F9CF8CBD9DBD10
:1007D0000895CF93DF93EC0180918402811109C0C9
:1007E00081E08093840280919405909195050E9408
:1007F000E60360E08C81DF91CF910C94FB018F9236
:100800009F92AF92BF92FF920F931F93CF93DF936C
:10081000EC01F62E49015A018E81882389F08F81DF
:1008200098859C012F5F3F4F38872F8382309240FD
:1008300018F40E94C803F3CFCE010E94B6031E82B3
:10084000CE010E94E9038CE291E00E94CB038F2D40
:1008500080640E94C10308E110E0D501C401002EAC
:1008600004C0B695A795979587950A94D2F70E94EC
:10087000C10308501109083F8FEF180771F785E988
:10088000FF2021F028E087E8F2128FEF0E94C103D9
:1008900010E00E94C8038A8787FF04C01F3F11F041
:1008A0001F5FF7CFDF91CF911F910F91FF90BF9006
:1008B000AF909F908F900895AF92BF92CF92DF92AA
:1008C000EF92FF920F931F93CF93DF93EC01690197
:1008D000C801820F931F8130924050F58E8188238A
:1008E00079F088819981AA81BB8184179507A60731
:1008F000B70731F48F819885C816D90608F042C031
:10090000488359836A837B838B85833039F089E000
:10091000440F551F661F771F8A95D1F79A01AB01C7
:1009200061E1CE010E94FF03882389F083E08D837B
:10093000CE010E94B60380E0DF91CF911F910F910D
:10094000FF90EF90DF90CF90BF90AF9008950E94FE
:10095000C5025B010E94C8038A878F3F69F40E9429
:10096000C5026A197B096D327140A0F38FE08D8357
:10097000CE010E94B603DCCF8E3F89F418861F8219
:1009800081E08E838F8198858C159D0550F40E949F
:10099000C8038F819885019698878F83F3CF8DE068
:1009A000E6CF6701E00EF11E0E94C803F6018193B5
:1009B0006F01EE15FF05C1F78F819885080F191F8C
:1009C00018870F838985882319F001151240A0F03C
:1009D0008E81882389F08F8198859C012F5F3F4FFE
:1009E00038872F838230924018F40E94C803F3CFD7
:1009F000CE010E94B6031E8281E09ECFCF92DF928D
:100A0000EF92FF920F93CF93DF93EC01690182E1A4
:100A1000411551056105710599F08B85833039F0D9
:100A200089E0440F551F661F771F8A95D1F79A01F9
:100A3000AB0168E1CE010E94FF03882319F084E036
:100A40008D832DC08EEF0E94C10376018EEFD81AE0
:100A5000F70181917F010E94C103EC14FD04C1F7ED
:100A60008FEF0E94C1038FEF0E94C1030E94C80351
:100A70008A878F71853071F4011116C0CE010E94F2
:100A8000B60381E0DF91CF910F91FF90EF90DF905F
:100A9000CF90089581E18D83CE010E94B603CE01EF
:100AA0000E94B60380E0EECF88E592E00E94CB037F
:100AB000811102C085E1C4CF20E030E0A9016DE0E2
:100AC000CE010E94FF03882311F084E1B9CF0E9478
:100AD000C8038111FACFD2CF0F9340918702509172
:100AE00088026091890270918A0241155105610561
:100AF000710599F0082F25EF32E08091F50490916F
:100B0000F6040E94FE04882349F010928702109296
:100B100088021092890210928A0281E00F91089552
:100B20000F93CF93C82F80918602811105C0C1E039
:100B30008C2FCF910F9108954091000150910101A8
:100B400060910201709103010C2F25EF32E080913A
:100B5000F5049091F6040E94FE04811102C0C0E0E9
:100B6000E7CFCC2321F381E00E946C058823B9F301
:100B700010928602DDCF8F929F92AF92BF92EF923A
:100B8000FF920F931F93CF934B015C01C42F809171
:100B9000000190910101A0910201B091030188151B
:100BA0009905AA05BB0551F181E00E9490058111CC
:100BB0000BC080E0CF911F910F91FF90EF90BF90FD
:100BC000AF909F908F90089585EFE82E82E0F82EE9
:100BD00000E012E030E020E0B501A4018091F504CE
:100BE0009091F6040E945C04882319F3809200011E
:100BF00090920101A0920201B092030140918602FD
:100C00004C2B4093860281E0D5CF8F929F92AF927A
:100C1000BF92CF92DF92EF92FF92CF9326E935E019
:100C20003093F6042093F504882309F46DC040E066
:100C300060E070E0CB010E94BB0581110BC080E039
:100C4000CF91FF90EF90DF90CF90BF90AF909F90AB
:100C50008F9008958091B3048F7789F78091BF04B6
:100C60009091C004A091C104B091C2048436910552
:100C7000A105B10520F3C090BB04D090BC04E09066
:100C8000BD04F090BE04C114D104E104F104B9F232
:100C900040E0C701B6010E94BB05882381F2809124
:100CA0000003909101038115924049F6A09105033C
:100CB000AA2329F260910303709104036115710561
:100CC00009F4BDCF20910203222309F4B8CFA093E9
:100CD000B4052093A60590E080E030E0E1E0F0E08C
:100CE000C82FAF01082E02C0440F551F0A94E2F727
:100CF0002417350769F041E0480F019689309105C6
:100D000079F74093AF059BCFC12CD12C7601C0CF92
:100D10008093AF0520910B0330910C0350E040E02D
:100D20002115310541F42091190330911A034091A6
:100D30001B0350911C032093A7053093A8054093F3
:100D4000A9055093AA0546015701860E971EA11CBE
:100D5000B11C8092B5059092B605A092B705B092ED
:100D6000B805E0910603F0910703F093BB05E0930B
:100D7000BA05B0E00E946821DC01CB01880D991D05
:100D8000AA1DBB1D8093BC059093BD05A093BE0515
:100D9000B093BF0525E0EE0FFF1F2A95E1F7E15064
:100DA000FE4FEF2FFF27E6958E0F9F1FA11DB11D50
:100DB0008093B0059093B105A093B205B093B305AD
:100DC0008090080390900903B12CA12C8114910408
:100DD00041F48090150390901603A0901703B090F3
:100DE0001803C81AD90AEA0AFB0AC80CD91CEA1C5B
:100DF000FB1C04C0F694E794D794C794CA95D2F725
:100E0000C092AB05D092AC05E092AD05F092AE0574
:100E100085EFC8168FE0D806E104F10428F48CE0D1
:100E20008093B90581E00CCF80E125EFC2162FEF4A
:100E3000D206E104F104A0F38091210390912203F2
:100E4000A0912303B09124038093BC059093BD052A
:100E5000A093BE05B093BF0580E2E2CF4F925F92B0
:100E60006F927F928F929F92AF92BF92CF92DF92BA
:100E7000EF92FF920F931F93CF93DF93EC014230D9
:100E800051056105710590F480E0DF91CF911F91CC
:100E90000F91FF90EF90DF90CF90BF90AF909F9019
:100EA0008F907F906F905F904F90089589859A857D
:100EB000AB85BC850196A11DB11D84179507A607BA
:100EC000B70710F3CB88DC88ED88FE888F898031E6
:100ED00009F042C0BB27A72F962F852F4801590143
:100EE0002A013B01C80ED91EEA1EFB1E809100019B
:100EF00090910101A0910201B0910301C816D90699
:100F0000EA06FB0699F58F898031C1F5B301A2018C
:100F1000552766277727440F551F4B505D4FFA0121
:100F200091828082809186028160809386028A8984
:100F3000823080F08D819E81AF81B8858C0D9D1DA2
:100F4000AE1DBF1D8093870290938802A0938902F3
:100F5000B0938A0281E099CFDB01CA01E7E0B69540
:100F6000A79597958795EA95D1F7B8CF40E0C70147
:100F7000B6010E94BB058111C6CF86CFB301A20185
:100F80004F77552766277727440F551F440F551F66
:100F90004B505D4FFA0180829182A282B382C2CF10
:100FA0008F929F92AF92BF92CF92DF92EF92FF9279
:100FB0000F931F93CF93DF93FC0181859285A385C7
:100FC000B4850196A11DB11D84179507A607B70723
:100FD00070F480E0DF91CF911F910F91FF90EF901F
:100FE000DF90CF90BF90AF909F908F9008958388AF
:100FF0009488A588B6888789803189F5BB27A72F73
:10100000962F852FE9016A017B018F01BC01CD017B
:10101000680D791D8A1D9B1D809000019090010133
:10102000A0900201B090030186169706A806B906A3
:1010300001F5F8018789803111F5DD24EE24FF24C4
:10104000F601EE0FFF1FEB50FD4F80819181B0E064
:10105000A0E088839983AA83BB8381E0BBCFDB01B7
:10106000CA01C7E0B695A79597958795CA95D1F718
:10107000C9CF40E00E94BB058111DBCFAACFE89425
:10108000C7F8DD24EE24FF24F601EE0FFF1FEE0F5C
:10109000FF1FEB50FD4F80819181A281B381BF7012
:1010A000D8CF4F925F926F927F92AF92BF92CF92C2
:1010B000DF92EF92FF920F931F93CF93DF9300D0B5
:1010C00000D0CDB7DEB78C0149835A836B837C8314
:1010D0005901C12CD12C7601412C82E0582E612C73
:1010E000712C49815A816B817C819E012F5F3F4F1A
:1010F000C8010E94D007882339F1F8018585A30132
:10110000920104C0220F331F441F551F8A95D2F746
:10111000DA01C901C80ED91EEA1EFB1E49815A8197
:101120006B817C818789803111F188EF9FEFAFEF70
:10113000BFE0481759076A077B0798F2F501C0829C
:10114000D182E282F38281E00F900F900F900F9096
:10115000DF91CF911F910F91FF90EF90DF90CF9093
:10116000BF90AF907F906F905F904F90089588EF01
:101170009FEFA0E0B0E0DDCFCF93DF93FC012581AE
:10118000222321F080E0DF91CF910895EC0180913E
:10119000B905803159F582E08583178A108E118E4A
:1011A000128E8091BA059091BB05B0E0A0E025E0D9
:1011B000880F991FAA1FBB1F2A95D1F7838B948B89
:1011C000A58BB68B82EA95E09C8F8B8F81E08C8318
:1011D0001E821F82188619861A861B861C861D860B
:1011E0001E861F86188A198A1A8ACDCF803251F638
:1011F00083E085834091BC055091BD056091BE059B
:101200007091BF05478B508F618F728F9F012D5E4C
:101210003F4F82EA95E00E9451088111D3CFB2CFAF
:101220008F929F92AF92BF92CF92DF92EF92FF92F6
:101230000F931F93CF93DF93EC018D8181110EC02B
:1012400080E0DF91CF911F910F91FF90EF90DF90A1
:10125000CF90BF90AF909F908F9008950B891C897D
:101260002D893E89041715072607370748F34A01D9
:101270005B01823031F48A869B86AC86BD8681E034
:10128000E0CF81149104A104B10449F41E821F82AD
:10129000188619861A861B861C861D86F0CF0A853D
:1012A0001B852C853D85EB8DFC8D858590E0099611
:1012B000B901A8014150510961097109082E04C002
:1012C00076956795579547950A94D2F7750164010D
:1012D000E1E0CE1AD108E108F10804C0F694E794E1
:1012E000D794C7948A95D2F7C416D506E606F706B2
:1012F00020F0012B022B032B11F58F89988DA98DDE
:10130000BA8D8E839F83A887B9878E010A5F1F4F8E
:10131000C114D104E104F10409F4ADCF4E815F8121
:101320006885798598018B8D9C8D0E94D00791E00E
:10133000C91AD108E108F1088111EACF81CFC41A96
:10134000D50AE60AF70AE1CF3F924F925F926F9279
:101350007F928F929F92AF92BF92CF92DF92EF9245
:10136000FF920F931F93CF93DF93CDB7DEB72C97E8
:101370000FB6F894DEBF0FBECDBF5C01DC015B96FB
:101380008D909C905C9716964D905D906D907C90A2
:101390001997411451046104710409F468C0BFEF46
:1013A0004B1A5B0A6B0A7B0A312CF401818592850A
:1013B000A385B4859C01AD012F5F3F4F4F4F5F4F19
:1013C00029873A874B875C87730162011D821E82E1
:1013D0001F821886F40181859285A385B4852D81AD
:1013E0003E814F815885281739074A075B0708F067
:1013F00056C089859A85AB85BC858C159D05AE0543
:10140000BF0550F482E0C82ED12CE12CF12C92E0E3
:10141000492E512C612C712C9E012F5F3F4FB7013B
:10142000A601C4010E94D0078823C9F189819A814D
:10143000AB81BC81892B8A2B8B2B09F126013701CB
:101440009FEF491A590A690A790A2D813E814F8115
:1014500058852F5F3F4F4F4F5F4F2D833E834F8304
:1014600058873FEFC31AD30AE30AF30AB3CFF40154
:1014700040805180628073803324339496CFC414AB
:10148000D504E604F70409F70FEF1FEF2FEF3FE055
:10149000B701A601C4010E942E07811119C080E086
:1014A0002C960FB6F894DEBF0FBECDBFDF91CF9163
:1014B0001F910F91FF90EF90DF90CF90BF90AF9072
:1014C0009F908F907F906F905F904F903F90089586
:1014D000D50116964D915D916D917C9119974115AD
:1014E00051056105710539F097018601C4010E941B
:1014F0002E078823A1F2D5011696CD92DD92ED92AA
:10150000FC921997332051F0D701C6010196A11D15
:10151000B11DF40180839183A283B383F501878990
:10152000908DA18DB28D892B8A2B8B2B39F48481E0
:10153000C78AD08EE18EF28E80688483F501848123
:101540008062848381E0ACCF1F93CF93DF93FC0153
:1015500025812223D1F1162FEC01848187FF2AC037
:10156000668577858089918941E00E94BB05882343
:1015700061F1EA8980E2E89FF0011124EB50FD4F10
:10158000309719F18D81823040F48B899C89AD8927
:10159000BE89848F958FA68FB78F8F89988D938FF3
:1015A000828F8F89988DA98DBA8DB58BA48B8C81F4
:1015B0008F778C83111103C08C818F7E8C83812F58
:1015C000DF91CF911F910C94900580E0DF91CF9136
:1015D0001F910895FF920F931F93CF93DF93EC0118
:1015E0008D81813041F090E080E0DF91CF911F91BB
:1015F0000F91FF9008958C8181FFF5CF82FD1BC074
:101600000091F5041091F604C8010E94E9030E94BC
:10161000C803F82EC8010E94B6038FEFF812E3CF7B
:101620008C8185FF1BC060E0CE010E94A40A8C81E2
:101630008F7D8C83D8CF4B895C896D897E898A8523
:101640009B85AC85BD8584179507A607B707C1F2B2
:10165000CE010E9410098111D3CFC5CF40918702DE
:10166000509188026091890270918A02452B462B25
:10167000472B21F080E00E946C05B5CF80618C8300
:101680002A853B85317080E092E0821B930BADCFC1
:10169000CF93DF93EC0161E00E94A40A882311F04C
:1016A0001D8281E0DF91CF9108952F923F924F925A
:1016B0005F926F927F928F929F92AF92BF92CF92E2
:1016C000DF92EF92FF920F931F93CF93DF9300D09F
:1016D00000D01F92CDB7DEB77C015B01342E5D8355
:1016E000DC0115968C911597813009F0CEC01496C7
:1016F0002C9021FECAC022FCB4C0C32CDD802294F1
:101700007FE027222094B22DB1702B2ED7011A969C
:101710004D915D916D917C911D97C114D10409F497
:1017200028C15B968D919C915C97FC0174807A94A2
:101730008A019B0169E036952795179507956A956B
:10174000D1F770228A011170711020C001151105A6
:10175000E9F416964D915D916D917C911997411523
:1017600051056105710509F099C057968D919D91BC
:101770000D90BC91A02D0097A105B10509F0B0C056
:10178000C7010E94A409882309F47FC080E092E089
:10179000801B910B46018C159D0508F44C01D70167
:1017A0005B964D915C915C9716968D919D910D90F5
:1017B000BC91A02D0297A109B109FA01258504C0A9
:1017C000880F991FAA1FBB1F2A95D2F746855785F8
:1017D00060897189840F951FA61FB71F9C01AD01F9
:1017E000270D311D411D511D29013A01811432E09F
:1017F000930609F07BC08091000190910101A091B6
:101800000201B091030184159505A605B70559F4A9
:101810008FEF9FEFDC018093000190930101A09373
:101820000201B0930301022D9501B301A201809141
:10183000F5049091F6040E94FE04882331F19EEF96
:10184000B91AC818D908F70182859385A485B5858A
:10185000880D991DA11DB11D82879387A487B58727
:1018600055CFF701438954896589768982859385A7
:10187000A485B585481759076A077B0709F43DCF4A
:10188000C7010E941009811138CF81E090E0D70193
:1018900013969C938E93129780E007C09E012F5F52
:1018A0003F4F0E94D007811102C090E079C089812A
:1018B0009A81AB81BC81F701238D348DF901278991
:1018C00048EF5FEF60E070E0203121F048EF5FEF1C
:1018D0006FEF7FE084179507A607B70708F050CF92
:1018E000F70186839783A087B18750CF0115110533
:1018F00099F5D7011A964D915D916D917C911D9747
:1019000053968D919D910D90BC91A02D481759072C
:101910006A077B0708F181E00E949005882309F49B
:10192000B4CF409200015092010160920201709286
:10193000030180918602816080938602C8018B50EA
:101940009D4FD5019C01280D391DFC012E173F0725
:1019500059F04D914193FACF41E0C301B2010E9489
:10196000BB058111EBCF91CF281B390BA20EB31E03
:1019700068CFF70183899489A589B689841795076B
:10198000A607B70738F48481438B548B658B768B1D
:1019900080688483F701848183FD1AC0832D9D8133
:1019A0000F900F900F900F900F90DF91CF911F919C
:1019B0000F91FF90EF90DF90CF90BF90AF909F90EE
:1019C0008F907F906F905F904F903F902F900895F1
:1019D00061E0C7010E94A40A882309F456CFDECF34
:1019E000CF93DF931F92CDB7DEB7698341E050E01C
:1019F000BE016F5F7F4F0E94550B0F90DF91CF911B
:101A00000895FC01DB0112968D919C9113979383AD
:101A1000828382E391E09183808314968C91149762
:101A2000848315968C911597858316964D915D91BB
:101A30006D917C91199746835783608771871A96B9
:101A40004D915D916D917C911D974287538764877D
:101A500075871E964D915D916D917C91519746874A
:101A60005787608B718B52968C915297828B5396CD
:101A70004D915D916D917C915697438B548B658B05
:101A8000768B57964D915D916D917C915A97478BCE
:101A9000508F618F728F5B968D919C91948F838F05
:101AA00008950895FC01818D928D009719F061E0F1
:101AB0000C94A40A0895DC015996ED91FC9130979D
:101AC000B9F083899489A589B6894285538564854F
:101AD0007585841B950BA60BB70B811520E8920723
:101AE000A105B10538F08FEF9FE7A0E0B0E00895C1
:101AF00090E080E00895DC0159968D919C910097CB
:101B000039F0DC01ED91FC910480F581E02D099420
:101B100090E080E00895CF93DF93EC01E98DFA8D9A
:101B2000309749F481E090E09B838A8390E080E0E5
:101B3000DF91CF91089513821282898D9A8D0E9430
:101B4000550BE98DFA8D22813381232B59F7F0CF84
:101B5000CF93DF931F92CDB7DEB76983DC01ED91A0
:101B6000FC910280F381E02D41E050E0BE016F5F07
:101B70007F4F09950F90DF91CF9108952F923F925B
:101B80004F925F926F927F928F929F92AF92BF928D
:101B9000CF92DF92EF92FF920F931F93CF93DF9339
:101BA00000D01F92CDB7DEB7FC018581811118C02E
:101BB0008FEF9FEF0F900F900F90DF91CF911F91BC
:101BC0000F91FF90EF90DF90CF90BF90AF909F90DC
:101BD0008F907F906F905F904F903F902F900895DF
:101BE000848180FFE5CF4389548965897689828520
:101BF0009385A485B585312C212C481759076A0790
:101C00007B0719F022242394312C6F012101CE018E
:101C100001963C01DF011696BB83AA83411451044F
:101C200009F4C5C0F60142855385648575854A016E
:101C3000F1E09F22D6015B968D919C915C978A0181
:101C40009B01E9E03695279517950795EA95D1F719
:101C50001596EC91E230E9F5FC01628D738D848D6F
:101C6000958D600F711F821F931FA12C22E0B22E51
:101C7000A818B9084A145B0408F45201F60124813B
:101C800026FD04C0A114F2E0BF0671F4009100012A
:101C900010910101209102013091030106171707ED
:101CA0002807390709F05EC040E00E94BB05882381
:101CB00009F47ECFC4018B509D4FD3019C012A0DA6
:101CC0003B1DFC012E173F0709F46CC041914D9359
:101CD000F9CFDC011496BC90BA94B022811491041F
:101CE00079F4B1100DC0452B462B472B69F5F60151
:101CF0008789908DA18DB28D86839783A087B187C8
:101D0000D6015B96ED91FC915C9716966D917D9155
:101D10008D919C91199762507109810991092585CE
:101D200004C0660F771F881F991F2A95D2F7068572
:101D3000178520893189600F711F821F931F6B0DDA
:101D4000711D811D911D91CFD60116964D915D910A
:101D50006D917C9119972A813B810E94D007811156
:101D6000CFCF26CF730185019401AB01BC018091D7
:101D7000F5049091F6040E945C04882309F418CFBE
:101D80006A0C7B1CF60182859385A485B5858A0D36
:101D90009B1DA11DB11D82879387A487B5874A1813
:101DA0005B083CCF281B390B620E731EEBCF2A94C5
:101DB000232809F0FDCE898190E0FCCEFC01818DC5
:101DC000928D009711F00C94BE0D8FEF9FEF089548
:101DD0000F931F93CF93DF93EC01898D9A8D10E0C1
:101DE00000E0009799F00E94BE0D8C010F3F100794
:101DF00069F0898D9A8DFC014285538564857585CE
:101E000041505109610971090E941009C801DF910F
:101E1000CF911F910F910895CF92DF92EF92FF9291
:101E20001F93CF93DF93EC0180E2689FF0011124B0
:101E3000EB50FD4F9385917161F0842F827449F0CE
:101E400080E0DF91CF911F91FF90EF90DF90CF90D6
:101E50000895142F6A8B8091000190910101A09147
:101E60000201B09103018E879F87A88BB98BC4882C
:101E7000D588F12CE12C7601DD24CC24CF8AD88EB4
:101E8000E98EFA8E828D938DB0E0A0E0AC01BD01A9
:101E90004C295D296E297F294F8B588F698F7A8F46
:101EA00083858871B1F4848D958DA68DB78D8B8BCC
:101EB0009C8BAD8BBE8B81E08D831F701C831E823B
:101EC0001F82188619861A861B861C861D8681E04D
:101ED000B8CF803109F0B4CF9E012D5E3F4F8B8D7E
:101EE0009C8D0E945108882309F4AACF84E0E4CF96
:101EF0002F923F924F925F926F927F928F929F921A
:101F0000AF92BF92CF92DF92EF92FF920F931F9307
:101F1000CF93DF93D82FC92F8B010E94A41E24E6F4
:101F200030E040E050E00E94402149019B01AC01BB
:101F300060E876E988E990E00E941C216B017C0151
:101F4000F80191828082ED2FFC2F2191822F022EA9
:101F5000000C990BC0970A97C0F32E3239F51F0178
:101F600080E8882E86E9982E88E9A82EB12C9AE080
:101F7000492E512C612C712CF101C1911F010C2EA5
:101F8000000CDD0BE097CA30D10580F4C501B40127
:101F9000A30192010E94402149015A01DE010E94E1
:101FA0007321C60ED71EE81EF91EE6CFA5E0B0E0ED
:101FB000A70196010E9468216F5F7F4F8F4F9F4F4F
:101FC00023E030E040E050E00E944021F80122830D
:101FD0003383448355831682DF91CF911F910F91F4
:101FE000FF90EF90DF90CF90BF90AF909F908F9039
:101FF0007F906F905F904F903F902F9008951F9328
:10200000CF93DF93EC0118811D3209F42196CE01A4
:102010000E94A41E9B01AC01A4E6B0E00E946821CE
:10202000AB01BC01FE012991822F022E000C990BFD
:10203000C0970A97B8F32E3231F58181082E000C33
:10204000990BC0978A309105F0F4AAE0A89F9001FF
:10205000A99F300D1124C901330FAA0BBB0B480FE8
:10206000591F6A1F7B1F8281082E000C990BC09795
:102070008A30910540F4092E000CAA0BBB0B480FC7
:10208000591F6A1F7B1F1D3239F47095609550955A
:1020900041955F4F6F4F7F4FCB01BA01DF91CF91D9
:1020A0001F910895FB0101900020E9F73197AF01DE
:1020B000461B570BDC01ED91FC910280F381E02D72
:1020C00009948F929F92AF92BF92EF92FF920F93DB
:1020D0001F93CF93DF93CDB7DEB7A1970FB6F894D8
:1020E000DEBF0FBECDBF7C01FA01CB0119A22230A9
:1020F00008F42AE08E010F5D1F4F822E912CB12C27
:10210000A12CBF01A50194010E944021F901CA013F
:102110006A300CF5605DD8016E938D01232B242B62
:10212000252B79F790E080E0109721F0BD01C701E1
:102130000E945210A1960FB6F894DEBF0FBECDBF1D
:10214000DF91CF911F910F91FF90EF90BF90AF90D3
:102150009F908F900895695CDECFCF92DF92EF92CF
:10216000FF920F931F93CF93DF9377FF1DC06A01F8
:102170007B01EC016DE20E9495008C0144275527FC
:10218000BA014C195D096E097F092AE0CE010E944F
:102190006110800F911FDF91CF911F910F91FF90E0
:1021A000EF90DF90CF9008952AE0DF91CF911F91BB
:1021B0000F91FF90EF90DF90CF900C9461102F92D1
:1021C0003F924F925F926F927F928F929F92AF92C7
:1021D000BF92CF92DF92EF92FF921F93CF93DF9344
:1021E000EC016A017B01722EAB019601CB01B601B5
:1021F0000E9417216CE471E0811126C0460157014D
:10220000E894B7F82FEF3FEF4FE75FE7C501B40160
:102210000E94172181110CC02FEF3FEF4FE75FE7BE
:10222000C501B4010E944D1F60E571E0181664F00D
:102230002FEF3FEF4FE75FE4C701B6010E94A520F3
:102240001816B4F464E571E0CE01DF91CF911F91CF
:10225000FF90EF90DF90CF90BF90AF909F908F90C6
:102260007F906F905F904F903F902F900C94521002
:102270002FEF3FEF4FE75FECC701B6010E944D1F04
:1022800087FDE0CF20E030E0A901C701B6010E9440
:102290004D1F312C212C87FF09C06DE2CE010E9419
:1022A00095001C01F7FAF094F7F8F09410E060E064
:1022B00070E080E09FE3711641F020E030E040E202
:1022C00051E40E94521F1F5FF6CFA70196010E94A2
:1022D000E11E2B013C010E94C41F4B015C012AE05E
:1022E000BC01A401CE010E9461107C01E20CF31C30
:1022F0001123C1F1C501B4010E94F31F9B01AC0180
:10230000C301B2010E94E01E4B015C016EE2CE01EE
:102310000E949500E80EF91E115020F120E030E0F7
:1023200040E251E4C501B4010E94AA202B013C0106
:102330000E94C41F4B01B12CA12C2AE0B501A401BD
:10234000CE010E946110E80EF91EC501B4010E9481
:10235000F31F9B01AC01C301B2010E94E01E4B01BF
:102360005C01DACFC701DF91CF911F91FF90EF9011
:10237000DF90CF90BF90AF909F908F907F906F90A5
:102380005F904F903F902F9008950F931F93CF939E
:10239000DF93EC010E9452108C0168E571E0CE01E0
:1023A0000E945210800F911FDF91CF911F910F91CA
:1023B00008950C9452103F924F925F926F927F92C9
:1023C0008F929F92AF92BF92CF92DF92EF92FF9245
:1023D0000F931F93CF93DF93CDB7DEB72B970FB635
:1023E000F894DEBF0FBECDBF7C01FE013196CE0159
:1023F0000C966F0130E23193E817F907E1F7DA0143
:1024000030E087E09D91B92E992309F43CC09E32BB
:10241000F1F48A30C9F480E02B960FB6F894DEBF51
:102420000FBECDBFDF91CF911F910F91FF90EF9025
:10243000DF90CF90BF90AF909F908F907F906F90E4
:102440005F904F903F90089538E08AE0DBCFE8E658
:10245000F0E04491442321F031969413FACFDBCF7E
:102460008317C8F24FED490F4E35A8F64FE9490FD3
:102470004A3118F440EEB42EB90EF601E30FF11D07
:10248000B0823F5FBFCF8981803229F2322E8B012B
:10249000DB015B968D919C915C97F701948F838F04
:1024A00016961D921D921D921C921997FB01128681
:1024B000138614861586F80182859385A485B585D3
:1024C000438954896589768984179507A607B707D4
:1024D00008F04DC025E0B695A795979587952A9564
:1024E000D1F7F82FFF70AF2ED80115968C9182305E
:1024F00008F491CFC8010E94BE0D97FD8CCFF80162
:1025000082859385A485B5854F96A11DB11D8287CF
:102510009387A487B587F0E2AF9EB00111246B507A
:102520007D4F6115710509F476CFDB018C9188230D
:1025300041F0853E09F062C0BB2029F0BB24B39472
:10254000BACFB1100EC0F701A28A8091000190911C
:102550000101A0910201B091030186879787A08BAA
:10256000B18BDB018C918111E9CFBB24B394832D16
:102570008271823109F04FCFBB2009F44DC0F701C1
:10258000668577858089918941E00E94BB05882313
:1025900009F441CFD70152968C91B0E28B9FC001D4
:1025A00011248B509D4F009709F435CFFC013A96CA
:1025B00026E1DF011D922A95E9F72BE0F601DC0107
:1025C00001900D922A95E1F721E238E2FC01318B6E
:1025D000208B40E058E057874687338B228B318F22
:1025E000208F578B468B81E00E949005882309F449
:1025F00012CF432DD70152966C910AC04BE050E0A8
:10260000C6010E94C322892B09F055CF432D6A2DA4
:10261000C7010E940C0F00CFF8018581823009F4B8
:10262000FACEC8010E94A409882309F4F4CED80187
:102630005B96ED91FC915C9716968D909D90AD9078
:10264000BC901997B2E08B1A9108A108B108858552
:1026500004C0880C991CAA1CBB1C8A95D2F78685DD
:102660009785A089B189880E991EAA1EBB1E8481F8
:1026700024013501480E511C611C711C8414950401
:10268000A604B70409F1E1E04E1A51086108710887
:1026900081E00E949005882309F4BDCEE5EFF2E0C9
:1026A000119285EF94E08E179F07D1F740920001B9
:1026B00050920101609202017092030180918602A2
:1026C000816080938602DACFD8015B96ED91FC9110
:1026D000258580E092E0A0E0B0E004C0880F991F5B
:1026E000AA1FBB1F2A95D2F7F8014389548965892F
:1026F0007689840F951FA61FB71F838B948BA58B9C
:10270000B68BD70152961C9285EF92E04FCFEF9295
:10271000FF920F931F93CF93DF93EC017B018A010C
:102720001B821A8288EE93E0A0E0B0E08C839D8348
:10273000AE83BF838EE091E0998388838DE190E042
:102740000E949E219A8F898F009779F02DE1F701E1
:10275000DC0101900D922A95E1F74CE050E0B801C0
:10276000CE010C960E94EB22188EDF91CF911F9123
:102770000F91FF90EF9008952F923F924F925F92AA
:102780006F927F928F929F92AF92BF92CF92DF9281
:10279000EF92FF920F931F93CF93DF93CDB7DEB7E6
:1027A000C656D1090FB6F894DEBF0FBECDBF6C017F
:1027B0005B0119A218A282E391E09F8F8E8F1BA26A
:1027C0001C821B829A8389831E824E018EE1880EB1
:1027D000911CC4010E94BC0875018E010F5F1F4F40
:1027E000240118016FE270E0C7010E94D022009717
:1027F00009F45DC0F70120812F3271F4FFEFEF1A69
:10280000FF0A902F812F8201492E582E942D852D5D
:102810002801092F182FE6CF8E198D3008F08CE093
:10282000682E712CA301B701CE01885A9F4F0E94D8
:10283000EB22E8E5F0E0EC0FFD1FE60DF71D10823E
:10284000C8010E94480BF8018581882301F11EAE62
:102850001DAE82E391E09CAF8BAF21961FAE219716
:10286000A796EEADFFADA797AE0EBF1EF501808116
:1028700081112AC0BE01655C7F4FC1010E94010D1C
:102880004BE551E0B101C6010E9487133BC021E036
:10289000AE01485A5F4FB201C8010E94DB11882384
:1028A000B1F2E60CF71CC2010E94480BAFCFC70182
:1028B0008A199B09A7969FAF8EAFA797B201CE0149
:1028C000CB960E94010DCCCF19A218A282E391E011
:1028D0009F8F8E8F1BA221968FAD219781112DC0C6
:1028E000F6011382128288EE93E0A0E0B0E08483C8
:1028F0009583A683B7838EE091E091838083128EC7
:10290000118E1486C601CA59DF4F0FB6F894DEBF88
:102910000FBECDBFDF91CF911F910F91FF90EF9030
:10292000DF90CF90BF90AF909F908F907F906F90EF
:102930005F904F903F902F90089527E1A501BE0131
:10294000655C7F4FC4010E94DB11882349F2CE01F0
:10295000CB960E94480B49A95AA96BA97CA9C4012E
:102960000E941009B401C1010E94010DA5018ACF86
:102970001F920F920FB60F9211242F933F934F93F4
:102980005F936F937F938F939F93AF93BF93EF93D7
:10299000FF9387EF94E00E941A01FF91EF91BF919E
:1029A000AF919F918F917F916F915F914F913F91E7
:1029B0002F910F900FBE0F901F9018951F920F929E
:1029C0000FB60F9211242F938F939F93EF93FF9342
:1029D000E0910705F09108058081E0910D05F091E7
:1029E0000E0582FD1BC09081809110058F5F8F7353
:1029F00020911105821741F0E0911005F0E0E950B7
:102A0000FB4F958F80931005FF91EF919F918F91D0
:102A10002F910F900FBE0F901F9018958081F4CFCB
:102A20001F920F920FB60F9211242F933F938F9303
:102A30009F93AF93BF938091CC029091CD02A091D0
:102A4000CE02B091CF023091CB0223E0230F2D377D
:102A500058F50196A11DB11D2093CB028093CC02A5
:102A60009093CD02A093CE02B093CF028091D0027A
:102A70009091D102A091D202B091D3020196A11DF2
:102A8000B11D8093D0029093D102A093D202B09353
:102A9000D302BF91AF919F918F913F912F910F9052
:102AA0000FBE0F901F90189526E8230F0296A11DC8
:102AB000B11DD2CF1F920F920FB60F9211242F93F8
:102AC0003F934F935F936F937F938F939F93AF93B6
:102AD000BF93EF93FF93E091D602F091D702309726
:102AE00049F0A685B7858585968D91FF14C09C9188
:102AF0008923A1F4FF91EF91BF91AF919F918F91A5
:102B00007F916F915F914F913F912F910F900FBEE9
:102B10000F901F9018959C91892361F7A389B48920
:102B20009C918589809589238C93868997890197C3
:102B3000F1F7608D718DA685B785558538E020E069
:102B4000CB010197F1F7822F90E095958795282F7B
:102B50004C91452309F02068315091F7868D81FD15
:102B600020958091D50290E001968F73992730913E
:102B7000D402381799F0A091D502B0E0A557BD4F07
:102B80002C938093D502828D938D0197F1F7A389C1
:102B9000B4898C919589892B8C93ACCF868D81607B
:102BA000868FF1CF1092FA041092F90488EE93E028
:102BB000A0E0B0E08093FB049093FC04A093FD049C
:102BC000B093FE0420E231E03093F8042093F70440
:102BD00025EC30E0309304052093030524EC30E02D
:102BE000309306052093050520EC30E0309308056E
:102BF0002093070521EC30E030930A052093090566
:102C000022EC30E030930C0520930B0526EC30E0ED
:102C100030930E0520930D051092100510921105AA
:102C2000109212051092130520E52093940510923E
:102C3000950510929B0510929C0510929F0510928D
:102C4000A10542E050E060E070E04093A20550939F
:102C5000A3056093A4057093A5051092B905109281
:102C6000C3051092C20522E331E03093C1052093E1
:102C7000C0051092C5051092FE051092FF05109236
:102C8000010610920006109202061092030610929E
:102C9000040610920506109206061092080610927D
:102CA00007061092090610920A0610920B0610925F
:102CB0000C0610920D0610920F0610920E0610923E
:102CC000100610921106109212061092130610921E
:102CD00014061092160610921506109217061092FE
:102CE00018061092190610921A0610921B061092DE
:102CF00020061092210610922206109223061092AE
:102D000024061092250610922E0610922F0610927D
:102D1000300610923106109232061092330610924D
:102D20003C0610923D061092420610924306109205
:102D300044061092450610924A0610924B061092D5
:102D4000500610925106109252061092530610929D
:102D500058061092590610925E0610925F06109265
:102D60006006109261061092660610926706109235
:102D70006C0610926D0610926E0610926F061092FD
:102D800074061092750610927A0610927B061092C5
:102D90007C0610927D06109282061092830622E035
:102DA0002093930610929406109295061092960620
:102DB000109298061092970610929A061092990611
:102DC00010929B0610929C0610929D0610929E06F1
:102DD00010929F061092A0061092A1061092A206D1
:102DE0001092A3061092A4061092A5061092A606B1
:102DF0001092A7061092A8061092A9061092AA0691
:102E0000109284061092E2051092E1058093E3058A
:102E10009093E405A093E505B093E6058EE391E079
:102E20009093E0058093DF051092F6051092F5056A
:102E30001092F8051092F7051092FA051092F90514
:102E40001092FC051092FB056091FD056E7F6D7F71
:102E50006093FD056695617081E0682783E00E94BC
:102E6000FB0161E083E00E942902E1ECF0E0E491E3
:102E7000E093EF05EDEAF0E0E491F0E0EE0FFF1FE4
:102E8000E056FF4F859194919093F1058093F00562
:102E900060E084E00E9429028091FD0581FD04C06C
:102EA00061E084E00E94FB0184E08093EB05E2ECAA
:102EB000F0E0E491E093EC05EEEAF0E0E491F0E07C
:102EC000EE0FFF1FEA56FF4F859194919093EE0508
:102ED0008093ED050895CF93DF93CDB7DEB76B9761
:102EE0000FB6F894DEBF0FBECDBF789484B5826074
:102EF00084BD84B5816084BD85B5826085BD85B59E
:102F0000816085BD80916E00816080936E0010921B
:102F10008100809181008260809381008091810096
:102F20008160809381008091800081608093800027
:102F30008091B10084608093B1008091B000816085
:102F40008093B00080917A00846080937A008091B1
:102F50007A00826080937A0080917A008160809309
:102F60007A0080917A00806880937A001092C10084
:102F7000E0910705F091080582E08083E091030568
:102F8000F09104051082E0910505F091060580E1BD
:102F9000808310920F05E0910B05F0910C0586E0FF
:102FA0008083E0910905F0910A058081806180832A
:102FB000E0910905F0910A05808188608083E091A5
:102FC0000905F0910A05808180688083E0910905F8
:102FD000F0910A0580818F7D808360E088E00E9407
:102FE000290260E089E00E9429021092FA051092FD
:102FF000F9051092F8051092F7051092F605109257
:10300000F5058DE991E09093FC058093FB05909187
:10301000EB05963108F047C02DEB30E03093F60514
:103020002093F5052BE931E03093F8052093F7055F
:103030002CE231E03093FA052093F90520916800E5
:1030400084E0983048F031E09E3008F430E081E0D0
:1030500001C0880F3A95EAF7822B809368002DE62D
:1030600030E0983050F02BE630E09E3030F02CE627
:1030700030E0963110F030E020E03093F3052093FB
:10308000F205292F30E0983008F0E8C181E001C056
:10309000880F9A95EAF78093F4058091FB0590914B
:1030A000FC050197F1F78091F9059091FA05892BBC
:1030B00049F1E091D602F091D70225E0EF3DF20709
:1030C00009F1309739F0A389B4899C91858980955D
:1030D00089238C938091FD058E7F8093FD0510924E
:1030E000D5021092D4028FED95E09093D702809391
:1030F000D602E091F205F091F30580819091F405FC
:10310000892B80838091C505882321F080EC95E090
:103110000E94480B1092A10510929F0510929C05E9
:1031200010929B0585E080939A050E94C5028B0151
:1031300061E080919A050E94290261E080919A05E0
:103140000E94FB01FFB6F8948091D802811127C03C
:10315000E4EBF0E08491E8ECF0E09491E82FF0E00B
:10316000EE0FFF1FE457FF4FA591B491EC91E923B7
:1031700021F461E08AE00E94FB0161E08AE00E94A4
:1031800029028CB580618CBD8CB580648CBD61E0FA
:103190008DE00E94290261E08BE00E94290280916B
:1031A000D8028F5F8093D802FFBE82E5809394059A
:1031B0001092950580919405909195050E94E603E3
:1031C0004AE0F42E8FEF0E94C103FA94F110FACF77
:1031D00086E995E00E94E90320E030E0A90160E083
:1031E00086E995E00E94FF03F82E8093A00581E018
:1031F000F81609F440C10E94C502601B710B613DC5
:10320000774050F381E080939B0586E995E00E942A
:10321000B60369E871E087EF94E00E94C51101E010
:1032200080E0682E80E0782E92E0C92EEE24E394B0
:1032300080E00E945A029093F4028093F30288E0A7
:103240000E94D2010E94900281E00E945A02909353
:10325000F2028093F10289E00E94D2016CEE71E0EB
:1032600087EF94E00E94D9114091F1025091F2024F
:10327000052E000C660B770B87EF94E00E94AD10D3
:1032800068E571E087EF94E00E9452100E9490027E
:103290008FED95E00E947403181619060CF087C391
:1032A0008FED95E00E948C03182F80919B069091E2
:1032B0009C06A0919D06B0919E060196A11DB11D90
:1032C00080939B0690939C06A0939D06B0939E06C8
:1032D000143209F42EC3E091950615320CF073C137
:1032E0001A3019F01D3009F031C3EF3008F0E8C191
:1032F000F0E0EC57F94F108290908306992009F482
:10330000E1C120918406822F022E000C990B3FEB25
:10331000320F363008F063C1C7978295807F909155
:103320008506292F092E000C330B4FEB490F463031
:1033300008F05DC127533109820F909182068913ED
:10334000ACC18091A7069091A806A091A906B09162
:10335000AA060196A11DB11D8093A7069093A80609
:10336000A093A906B093AA0680919606882399F0A7
:1033700080919F069091A006A091A106B091A2060F
:103380000196A11DB11D80939F069093A006A09366
:10339000A106B093A206B0909306BB2009F430C1F9
:1033A00021E0B21234C080E296E00E94E8028EE290
:1033B00096E00E94E80280919606882341F187E01A
:1033C000EEE0F6E0A0E0B6E001900D928A95E1F71C
:1033D00087E0E5E1F6E0A7E0B6E001900D928A957E
:1033E000E1F70E94C50260931C0670931D0680934E
:1033F0001E0690931F06B092FF05B092FE058CE367
:1034000096E00E94D1028AE496E00E94D102A09048
:103410009906B0909A06A114B10409F4DBC2E091B8
:103420009906F0919A0666A177A1F50186A197A168
:103430000E94DB22892B09F0CDC2B501C50140965F
:103440000E94E4220E94C502F50160A371A382A339
:1034500093A305A304A3A2A4B3A4DDCF9E3040F49C
:103460002850310981E001C0880F2A95EAF713CE70
:103470002E503109F7CF2AEA31E040E050E068E011
:1034800086E995E00E94FF0382FF2AC0F092A10521
:103490008091A105C12CD12CE12C20E4F22E8230A8
:1034A00019F0C12CD12C760120E030E0A90167E3AE
:1034B00086E995E00E94FF03A701960169E286E98B
:1034C00095E00E94FF038093A0058823D1F00E941D
:1034D000C502601B710B613D774030F388E093CEED
:1034E00034E0F32E0E94C8038093A005FA94F110F3
:1034F000F9CF8A3A11F082E086CE82E08093A1056E
:10350000C7CF8091A1058230D1F420E030E0A9013D
:103510006AE386E995E00E94FF03882311F086E0C4
:1035200072CE0E94C803807C803C19F483E08093B3
:10353000A1050E94C8030E94C8030E94C80386E92F
:1035400095E00E94B60380E580939405109295055E
:1035500081E00E9405068823D1F080EC95E00E946E
:10356000BC08882309F455CE6DE571E087EF94E03F
:103570000E94C5116FE671E0CE0101960E94BC1356
:10358000EA8DFB8D309751F467ED71E044CE80E019
:103590000E940506882309F43CCEDFCF858188236D
:1035A00099F365EA71E0CE0101960E94C5118A8DFA
:1035B0009B8D009709F433CE0E94480B8A8D9B8D1A
:1035C0000E943A222CCE1A3209F48FCE1C3209F016
:1035D000BDC18091820681278093820686CE2156C6
:1035E000263018F48755910998CEC09796CE9156FB
:1035F000963018F4275531099FCE205331099CCEBF
:103600008EE296E00E94E80280919606882321F1DE
:1036100087E0EEE0F6E0A0E0B6E001900D928A953A
:10362000E1F787E0E5E1F6E0A7E0B6E001900D9272
:103630008A95E1F70E94C50260931C0670931D06EF
:1036400080931E0690931F06E092FF05E092FE0510
:1036500088E596E00E94D1028091700690917106F3
:10366000A0917206B091730680936C0690936D06DC
:10367000A0936E06B0936F060E94C5026093680621
:103680007093690680936A0690936B06E0926706D2
:10369000E092660684E796E0B8CE8091A30690910A
:1036A000A406A091A506B091A6060196A11DB11D84
:1036B0008093A3069093A406A093A506B093A606B4
:1036C000912C88C190919406911144C068EF71E0EB
:1036D00084E896E00E94DB22892B41F06EEF71E0D6
:1036E00084E896E00E94DB22892BF1F4E0929306B5
:1036F000809197069091980690939A0680939906E8
:10370000A0909906B0909A06A114B104C9F264E899
:1037100076E0F50186A197A10E94DB2297FF53C1B5
:10372000F50182A593A5E8CF64E072E084E896E015
:103730000E94DB22892B41F06AE072E084E896E087
:103740000E94DB22892B19F410929306D1CFC092EC
:103750009306CECFE0919306E23009F448C0809101
:103760008406882309F443C020E2E29FF00111247B
:10377000E92B3197E932F10508F039C0EE53F44EE8
:103780000C946221EB1B2C1C331C3A1C3D1C6B1C43
:10379000721C7F1C8C1CF71BF71BF71BF71BF71BFE
:1037A000F71BF71BF71BF71BF71BF71BF71BF71B89
:1037B000F71BF71BF71BF71BF71BF71BF71BF71B79
:1037C000F71BF71BEB1B261C2C1C331C3A1C3D1C47
:1037D000441C511C5E1C84E896E00E94FF0F60931D
:1037E0003406709335068093360690933706A09082
:1037F0009906B0909A0690909406A114B10409F429
:103800005FCFE0919906F0919A0666A177A1F50144
:1038100086A197A10E94DB22892B09F051CFF501E7
:1038200020A531A5892D90E0821793070CF448CF8D
:103830002817390739F440E150E064E876E0C50123
:103840000E94EB22F501A2A4B3A4D5CF91E081346C
:1038500009F445C090E043C06EE076E084E896E06D
:103860000E94780FC4CF91E0833509F090E09093E7
:103870001406BDCF65E176E0F1CF91E0873509F020
:1038800090E090931B06B3CF84E896E00E94FF0F70
:1038900060934606709347068093480690934906C6
:1038A000A6CF84E896E00E94FF0F609354067093C1
:1038B0005506809356069093570699CF84E896E074
:1038C0000E94A41E60932606709327068093280604
:1038D000909329068CCF91E081330CF4BBCF909369
:1038E000960685CF84E896E00E94A41E6093700639
:1038F00070937106809372069093730678CF84E874
:1039000096E00E94FF0F60937E0670937F0680937F
:103910008006909381066BCF84E896E00E94FF0FAB
:1039200060936206709363068093640690936506C5
:103930005ECF109295061092940610928206C09265
:1039400093061092830610929606A2CCEE3040F4B5
:1039500081E08E0F80939506F0E0EC57F94F1083CD
:1039600080918306811194CC80918206F82EF126F5
:10397000F09282068DCC60E172E087EF94E00E94C5
:10398000C51197C061E272E087EF94E00E94C51113
:10399000A7C06EE272E087EF94E00E94C511B7C045
:1039A00063E772E087EF94E00E94C51171CC611467
:1039B000710409F43DCC0E940601882309F438CC37
:1039C0000E94000035CC892B09F47ACE10929A0619
:1039D00010929906809194068F5F809394061092BE
:1039E000950681E01A3209F080E0809383069920E1
:1039F00009F44ECC8091FE05882309F4BCCF1092C7
:103A0000FF05609102067091030680910406909173
:103A100005060E94F31F28E23BE64EE65EE40E94A4
:103A2000521F4B015C01609100067091010690E00D
:103A300080E00E94F31F9B01AC01C501B4010E940C
:103A4000E11E20910606211190586093D9027093CF
:103A5000DA028093DB029093DC0260910906709198
:103A60000A0680910B0690910C060E94F31F28E233
:103A70003BE64EE65EE40E94521F4B015C01609102
:103A800007067091080690E080E00E94F31F9B01FA
:103A9000AC01C501B4010E94E11E20910D06211167
:103AA00090586093DD027093DE028093DF02909362
:103AB000E00280912006882309F464CF1092210649
:103AC0008091220690912306A0912406B0912506AC
:103AD0008093E1029093E202A093E302B093E402A8
:103AE00080912E06882309F454CF10922F068091DE
:103AF000300690913106A0913206B0913306809342
:103B0000E5029093E602A093E702B093E8026BE32C
:103B100072E087EF94E00E94D9114091D902509150
:103B2000DA026091DB027091DC0226E087EF94E01C
:103B30000E94DF1066E472E087EF94E00E94D911E2
:103B40004091DD025091DE026091DF027091E0024F
:103B500026E087EF94E00E94DF1069E472E087EFCF
:103B600094E00E94D9114091E1025091E2026091EB
:103B7000E3027091E4022AE087EF94E00E94611072
:103B800062E572E087EF94E00E94D9114091E5026E
:103B90005091E6026091E7027091E8022AE087EF17
:103BA00094E00E9461106BE572E087EF94E00E9460
:103BB000D9114091F3025091F402052E000C660BCE
:103BC000770B87EF94E00E94AD106CEE71E087EF09
:103BD00094E00E94D9114091F1025091F202052E19
:103BE000000C660B770B87EF94E00E94AD1068E540
:103BF00071E087EF94E00E94521066E672E0CE0119
:103C000001960E94BC13EA8DFB8D309709F4C8CE53
:103C10008581882309F4C4CE4091D9025091DA02FB
:103C20006091DB027091DC0222E0CE0101960E94DD
:103C3000DF1066E472E0CE0101960E94D911409136
:103C4000DD025091DE026091DF027091E00222E01D
:103C5000CE0101960E94DF1066E472E0CE0101966B
:103C60000E94D9114091E1025091E2026091E30279
:103C70007091E4022AE0CE0101960E94611066E490
:103C800072E0CE0101960E94D9114091E502509157
:103C9000E6026091E7027091E8022AE0CE01019607
:103CA0000E94611066E472E0CE0101960E94D91173
:103CB0004091F3025091F402052E000C660B770B35
:103CC000CE0101960E94AD1066E472E0CE0101962D
:103CD0000E94D9114091F1025091F202052E000C80
:103CE000660B770BCE0101960E94AD1068E571E07E
:103CF000CE0101960E9452108A8D9B8D009709F487
:103D0000C7CA0E94480B8A8D9B8D0E943A22C0CA66
:103D10008EE391E09093E0058093DF058091D602D9
:103D20009091D7028F5D954071F4E091F205F0918A
:103D3000F30590818091F40580958923808310920A
:103D4000D7021092D60208951F93FC019927882765
:103D5000BC01E89411911032E9F3193010F01E30D3
:103D6000C8F31B3251F01D3249F4689406C00E941A
:103D7000CB1E610F711D811D911D119110531A30C1
:103D8000B0F33EF490958095709561957F4F8F4F7D
:103D90009F4F1F910895592F482F372F262F660FB9
:103DA000771F881F991F660F771F881F991F620F43
:103DB000731F841F951F660F771F881F991F089513
:103DC0005058BB27AA270E94F81E0C946B200E9413
:103DD0005D2038F00E94642020F039F49F3F19F4F0
:103DE00026F40C945A200EF4E095E7FB0C94542032
:103DF000E92F0E947C2058F3BA17620773078407E3
:103E0000950720F079F4A6F50C949E200EF4E09529
:103E10000B2EBA2FA02D0B01B90190010C01CA0184
:103E2000A0011124FF27591B99F0593F50F4503E2F
:103E300068F11A16F040A22F232F342F4427585F21
:103E4000F3CF469537952795A795F0405395C9F739
:103E50007EF41F16BA0B620B730B840BBAF09150F1
:103E6000A1F0FF0FBB1F661F771F881FC2F70EC090
:103E7000BA0F621F731F841F48F487957795679563
:103E8000B795F7959E3F08F0B0CF9395880F08F04F
:103E90009927EE0F9795879508950E94302008F492
:103EA00081E008950E94661F0C946B200E9464209C
:103EB00058F00E945D2040F029F45F3F29F00C94F7
:103EC000542051110C949F200C945A200E947C2065
:103ED00068F39923B1F3552391F3951B550BBB2739
:103EE000AA2762177307840738F09F5F5F4F220F7E
:103EF000331F441FAA1FA9F335D00E2E3AF0E0E875
:103F000032D091505040E695001CCAF72BD0FE2FBE
:103F100029D0660F771F881FBB1F26173707480752
:103F2000AB07B0E809F0BB0B802DBF01FF2793580A
:103F30005F4F3AF09E3F510578F00C9454200C945A
:103F40009F205F3FE4F3983ED4F38695779567957D
:103F5000B795F7959F5FC9F7880F911D969587953F
:103F600097F90895E1E0660F771F881FBB1F62175E
:103F700073078407BA0720F0621B730B840BBA0B1C
:103F8000EE1F88F7E09508950E94842088F09F57DF
:103F900098F0B92F9927B751B0F0E1F0660F771F6D
:103FA000881F991F1AF0BA95C9F714C0B13091F063
:103FB0000E949E20B1E008950C949E20672F782FD8
:103FC0008827B85F39F0B93FCCF386957795679528
:103FD000B395D9F73EF490958095709561957F4F94
:103FE0008F4F9F4F0895E89409C097FB3EF490953A
:103FF0008095709561957F4F8F4F9F4F9923A9F0C2
:10400000F92F96E9BB279395F69587957795679550
:10401000B795F111F8CFFAF4BB0F11F460FF1BC094
:104020006F5F7F4F8F4F9F4F16C0882311F096E927
:1040300011C0772321F09EE8872F762F05C06623D5
:1040400071F096E8862F70E060E02AF09A95660F8E
:10405000771F881FDAF7880F9695879597F9089547
:10406000990F0008550FAA0BE0E8FEEF1616170689
:10407000E807F907C0F012161306E407F50798F0F1
:10408000621B730B840B950B39F40A2661F0232B0A
:10409000242B252B21F408950A2609F4A140A69586
:1040A0008FEF811D811D089597F99F6780E870E06B
:1040B00060E008959FEF80EC089500240A9416169E
:1040C000170618060906089500240A941216130606
:1040D000140605060895092E0394000C11F4882394
:1040E00052F0BB0F40F4BF2B11F460FF04C06F5FB0
:1040F0007F4F8F4F9F4F089557FD9058440F551F86
:1041000059F05F3F71F04795880F97FB991F61F059
:104110009F3F79F087950895121613061406551FD0
:10412000F2CF4695F1DF08C0161617061806991F3C
:10413000F1CF86957105610508940895E894BB2731
:1041400066277727CB0197F908950E94302008F45D
:104150008FEF08950E94BD200C946B200E945D207B
:1041600038F00E94642020F0952311F00C94542024
:104170000C945A2011240C949F200E947C2070F3F0
:10418000959FC1F3950F50E0551F629FF001729FFC
:10419000BB27F00DB11D639FAA27F00DB11DAA1F0B
:1041A000649F6627B00DA11D661F829F2227B00D58
:1041B000A11D621F739FB00DA11D621F839FA00DE3
:1041C000611D221F749F3327A00D611D231F849F33
:1041D000600D211D822F762F6A2F11249F5750408A
:1041E0009AF0F1F088234AF0EE0FFF1FBB1F661F05
:1041F000771F881F91505040A9F79E3F510580F0CE
:104200000C9454200C949F205F3FE4F3983ED4F329
:10421000869577956795B795F795E7959F5FC1F771
:10422000FE2B880F911D9695879597F908950E940A
:104230003020880B990B0895DB018F939F930E9488
:104240006821BF91AF91A29F800D911DA39F900DFA
:10425000B29F900D1124089597FB072E16F4009439
:1042600007D077FD09D00E947B2107FC05D03EF4E2
:10427000909581959F4F0895709561957F4F089512
:10428000A1E21A2EAA1BBB1BFD010DC0AA1FBB1F5A
:10429000EE1FFF1FA217B307E407F50720F0A21BCC
:1042A000B30BE40BF50B661F771F881F991F1A9439
:1042B00069F760957095809590959B01AC01BD0163
:1042C000CF010895EE0FFF1F0590F491E02D0994A2
:1042D0000E948F21A59F900DB49F900DA49F800DEB
:1042E000911D11240895B7FF0C9468210E94682144
:1042F000821B930B0895AA1BBB1B51E107C0AA1F89
:10430000BB1FA617B70710F0A61BB70B881F991F76
:104310005A95A9F780959095BC01CD010895A29F6B
:10432000B001B39FC001A39F700D811D1124911D89
:10433000B29F700D811D1124911D08950F931F933D
:10434000CF93DF938230910510F482E090E0E0910A
:10435000AD06F091AE0630E020E0B0E0A0E030978E
:1043600099F42115310509F44AC0281B390B243072
:104370003105D8F58A819B816115710589F1FB01B1
:1043800093838283FE0111C0408151810281138198
:1043900048175907E0F04817590799F4109761F04A
:1043A00012960C93129713961C933296CF01DF91BD
:1043B000CF911F910F9108950093AD061093AE0613
:1043C000F4CF2115310551F04217530738F0A901F8
:1043D000DB019A01BD01DF01F801C1CFEF01F9CF87
:1043E0009093AE068093AD06CDCFFE01E20FF31F92
:1043F000819391932250310939832883D7CF20911B
:10440000AB063091AC06232B41F42091060130918C
:1044100007013093AC062093AB0620910401309144
:1044200005012115310541F42DB73EB74091080132
:1044300050910901241B350BE091AB06F091AC06BD
:10444000E217F307A0F42E1B3F0B2817390778F06B
:10445000AC014E5F5F4F2417350748F04E0F5F1FCA
:104460005093AC064093AB06819391939FCFF0E0BD
:10447000E0E09CCFCF93DF930097E9F0FC01329707
:1044800013821282A091AD06B091AE06ED0130E02C
:1044900020E01097A1F420813181820F931F209199
:1044A000AB063091AC062817390709F061C0F093CC
:1044B000AC06E093AB06DF91CF910895EA01CE17E9
:1044C000DF07E8F54A815B819E0141155105B1F78F
:1044D000E901FB83EA8349915991C40FD51FEC1779
:1044E000FD0761F4808191810296840F951FE90197
:1044F00099838883828193819B838A83F0E0E0E0C3
:1045000012968D919C9113970097B9F52D913C913E
:104510001197CD010296820F931F2091AB06309127
:10452000AC062817390739F6309751F51092AE06C8
:104530001092AD06B093AC06A093AB06BCCFD3836C
:10454000C28340815181840F951FC817D90761F438
:104550004E5F5F4F88819981480F591F5183408377
:104560008A819B81938382832115310509F0B0CF25
:10457000F093AE06E093AD069ECFFD01DC01C0CF07
:1045800013821282D7CFFB01DC0104C08D91019010
:10459000801921F441505040C8F7881B990B0895A9
:1045A000FC018191861721F08823D9F79927089576
:1045B0003197CF010895FB01DC018D9101908019A5
:1045C0000110D9F3990B0895FB01DC0101900D92C4
:1045D0000020E1F70895FB01DC014150504048F014
:1045E00001900D920020C9F701C01D92415050402A
:1045F000E0F7089510E0CAE6D0E004C0FE010E9492
:0E46000062212196CB36D107C9F7F894FFCF7F
:10460E00FFFFFFFF0000AF06800000000000A80DB6
:10461E008B0D7B0D520D5B0DDE0EE80E00000000C3
:10462E003C019C00C9008901FA00D800EC00000092
:10463E000000F00C9C00EA0A510D00000000180367
:10464E009C00AD03170374038C03FF026E616E00B2
:10465E00696E66006F7666000D0A002F0063617248
:10466E006420696E697469616C697A65642E00678D
:10467E0070735F646174615F4348345F434F326CA3
:10468E006576656C2E637376004361726420666195
:10469E00696C65642C206F72206E6F742070726569
:1046AE0073656E74004C617469747564652C204C6E
:1046BE006F6E6769747564652C20446174652C2077
:1046CE0054696D652C434F6C6576656C2C204348A0
:1046DE00346C6576656C006E6F70652063616E2755
:1046EE0074206F70656E2066696C650043483420D7
:1046FE0076616C75653A20004750524D4300474E27
:10470E00524D4300475047474100474E47474100EF
:10471E00496E76616C6964206C6F636174696F6E4B
:10472E0000496E76616C6964206461746500496E3F
:10473E0076616C69642074696D65004C6F63617499
:10474E00696F6E3A20002C20002020446174653A77
:10475E002000202054696D653A2000434F20766179
:10476E006C75653A20006770735F646174612E63C7
:10477E007376006E6F7065206E6F20646174616673
:04478E00696C6500ED
:00000001FF
